{
  "contractName": "SocialRecovery",
  "abi": [
    {
      "anonymous": false,
      "inputs": [
        {
          "indexed": false,
          "internalType": "address",
          "name": "userAddress",
          "type": "address"
        },
        {
          "indexed": false,
          "internalType": "address",
          "name": "guardianAddress",
          "type": "address"
        },
        {
          "indexed": false,
          "internalType": "enum SocialRecovery.GuardianStatus",
          "name": "statusBefore",
          "type": "uint8"
        },
        {
          "indexed": false,
          "internalType": "enum SocialRecovery.GuardianStatus",
          "name": "statusAfter",
          "type": "uint8"
        },
        {
          "indexed": false,
          "internalType": "uint256",
          "name": "timestamp",
          "type": "uint256"
        }
      ],
      "name": "GuardianStatusChange",
      "type": "event"
    },
    {
      "anonymous": false,
      "inputs": [
        {
          "indexed": true,
          "internalType": "address",
          "name": "previousOwner",
          "type": "address"
        },
        {
          "indexed": true,
          "internalType": "address",
          "name": "newOwner",
          "type": "address"
        }
      ],
      "name": "OwnershipTransferred",
      "type": "event"
    },
    {
      "anonymous": false,
      "inputs": [
        {
          "indexed": false,
          "internalType": "address",
          "name": "userAddress",
          "type": "address"
        },
        {
          "indexed": false,
          "internalType": "enum SocialRecovery.UserAccountStatus",
          "name": "statusBefore",
          "type": "uint8"
        },
        {
          "indexed": false,
          "internalType": "enum SocialRecovery.UserAccountStatus",
          "name": "statusAfter",
          "type": "uint8"
        },
        {
          "indexed": false,
          "internalType": "uint256",
          "name": "timestamp",
          "type": "uint256"
        }
      ],
      "name": "UserAccountStatusChange",
      "type": "event"
    },
    {
      "inputs": [],
      "name": "owner",
      "outputs": [
        {
          "internalType": "address",
          "name": "",
          "type": "address"
        }
      ],
      "stateMutability": "view",
      "type": "function",
      "constant": true
    },
    {
      "inputs": [],
      "name": "renounceOwnership",
      "outputs": [],
      "stateMutability": "nonpayable",
      "type": "function"
    },
    {
      "inputs": [
        {
          "internalType": "address",
          "name": "newOwner",
          "type": "address"
        }
      ],
      "name": "transferOwnership",
      "outputs": [],
      "stateMutability": "nonpayable",
      "type": "function"
    },
    {
      "inputs": [
        {
          "internalType": "address",
          "name": "_guardianAddress",
          "type": "address"
        },
        {
          "internalType": "string",
          "name": "_name",
          "type": "string"
        }
      ],
      "name": "addGuardian",
      "outputs": [],
      "stateMutability": "nonpayable",
      "type": "function"
    },
    {
      "inputs": [],
      "name": "reset",
      "outputs": [],
      "stateMutability": "nonpayable",
      "type": "function"
    },
    {
      "inputs": [
        {
          "internalType": "address",
          "name": "_guardianAddress",
          "type": "address"
        }
      ],
      "name": "revokeGuardian",
      "outputs": [],
      "stateMutability": "nonpayable",
      "type": "function"
    },
    {
      "inputs": [],
      "name": "getProtectedUser",
      "outputs": [
        {
          "components": [
            {
              "internalType": "address",
              "name": "userAddress",
              "type": "address"
            },
            {
              "internalType": "address[]",
              "name": "guardians",
              "type": "address[]"
            },
            {
              "internalType": "uint256",
              "name": "guardianCount",
              "type": "uint256"
            },
            {
              "internalType": "enum SocialRecovery.UserAccountStatus",
              "name": "accountStatus",
              "type": "uint8"
            },
            {
              "internalType": "address",
              "name": "recoveryAddress",
              "type": "address"
            },
            {
              "internalType": "string",
              "name": "name",
              "type": "string"
            },
            {
              "internalType": "uint256",
              "name": "shareCounts",
              "type": "uint256"
            },
            {
              "internalType": "uint256",
              "name": "threashold",
              "type": "uint256"
            }
          ],
          "internalType": "struct SocialRecovery.User",
          "name": "",
          "type": "tuple"
        }
      ],
      "stateMutability": "view",
      "type": "function",
      "constant": true
    },
    {
      "inputs": [],
      "name": "getRecoverUser",
      "outputs": [
        {
          "components": [
            {
              "internalType": "address",
              "name": "userAddress",
              "type": "address"
            },
            {
              "internalType": "address[]",
              "name": "guardians",
              "type": "address[]"
            },
            {
              "internalType": "uint256",
              "name": "guardianCount",
              "type": "uint256"
            },
            {
              "internalType": "enum SocialRecovery.UserAccountStatus",
              "name": "accountStatus",
              "type": "uint8"
            },
            {
              "internalType": "address",
              "name": "recoveryAddress",
              "type": "address"
            },
            {
              "internalType": "string",
              "name": "name",
              "type": "string"
            },
            {
              "internalType": "uint256",
              "name": "shareCounts",
              "type": "uint256"
            },
            {
              "internalType": "uint256",
              "name": "threashold",
              "type": "uint256"
            }
          ],
          "internalType": "struct SocialRecovery.User",
          "name": "",
          "type": "tuple"
        }
      ],
      "stateMutability": "view",
      "type": "function",
      "constant": true
    },
    {
      "inputs": [],
      "name": "getUser",
      "outputs": [
        {
          "components": [
            {
              "internalType": "address",
              "name": "userAddress",
              "type": "address"
            },
            {
              "internalType": "address[]",
              "name": "guardians",
              "type": "address[]"
            },
            {
              "internalType": "uint256",
              "name": "guardianCount",
              "type": "uint256"
            },
            {
              "internalType": "enum SocialRecovery.UserAccountStatus",
              "name": "accountStatus",
              "type": "uint8"
            },
            {
              "internalType": "address",
              "name": "recoveryAddress",
              "type": "address"
            },
            {
              "internalType": "string",
              "name": "name",
              "type": "string"
            },
            {
              "internalType": "uint256",
              "name": "shareCounts",
              "type": "uint256"
            },
            {
              "internalType": "uint256",
              "name": "threashold",
              "type": "uint256"
            }
          ],
          "internalType": "struct SocialRecovery.User",
          "name": "",
          "type": "tuple"
        }
      ],
      "stateMutability": "view",
      "type": "function",
      "constant": true
    },
    {
      "inputs": [],
      "name": "getGuardian",
      "outputs": [
        {
          "components": [
            {
              "internalType": "address",
              "name": "guardianAddress",
              "type": "address"
            },
            {
              "internalType": "address",
              "name": "guardianOf",
              "type": "address"
            },
            {
              "internalType": "string",
              "name": "secret",
              "type": "string"
            },
            {
              "internalType": "string",
              "name": "unlockedSecret",
              "type": "string"
            },
            {
              "internalType": "enum SocialRecovery.GuardianStatus",
              "name": "guardianStatus",
              "type": "uint8"
            },
            {
              "internalType": "string",
              "name": "name",
              "type": "string"
            }
          ],
          "internalType": "struct SocialRecovery.Guardian",
          "name": "",
          "type": "tuple"
        }
      ],
      "stateMutability": "view",
      "type": "function",
      "constant": true
    },
    {
      "inputs": [
        {
          "internalType": "address",
          "name": "_guardianAddress",
          "type": "address"
        }
      ],
      "name": "getGuardian",
      "outputs": [
        {
          "components": [
            {
              "internalType": "address",
              "name": "guardianAddress",
              "type": "address"
            },
            {
              "internalType": "address",
              "name": "guardianOf",
              "type": "address"
            },
            {
              "internalType": "string",
              "name": "secret",
              "type": "string"
            },
            {
              "internalType": "string",
              "name": "unlockedSecret",
              "type": "string"
            },
            {
              "internalType": "enum SocialRecovery.GuardianStatus",
              "name": "guardianStatus",
              "type": "uint8"
            },
            {
              "internalType": "string",
              "name": "name",
              "type": "string"
            }
          ],
          "internalType": "struct SocialRecovery.Guardian",
          "name": "",
          "type": "tuple"
        }
      ],
      "stateMutability": "view",
      "type": "function",
      "constant": true
    },
    {
      "inputs": [],
      "name": "getUnlockedSecrets",
      "outputs": [
        {
          "internalType": "string[]",
          "name": "",
          "type": "string[]"
        }
      ],
      "stateMutability": "view",
      "type": "function",
      "constant": true
    },
    {
      "inputs": [],
      "name": "confirmGuardian",
      "outputs": [],
      "stateMutability": "nonpayable",
      "type": "function"
    },
    {
      "inputs": [
        {
          "internalType": "address",
          "name": "_recoveryUserAddress",
          "type": "address"
        },
        {
          "internalType": "string",
          "name": "unlockedSecret",
          "type": "string"
        }
      ],
      "name": "unlock",
      "outputs": [],
      "stateMutability": "nonpayable",
      "type": "function"
    },
    {
      "inputs": [
        {
          "internalType": "string[]",
          "name": "_shares",
          "type": "string[]"
        },
        {
          "internalType": "uint256",
          "name": "threashold",
          "type": "uint256"
        }
      ],
      "name": "lock",
      "outputs": [],
      "stateMutability": "nonpayable",
      "type": "function"
    }
  ],
  "bytecode": "0x60806040523480156200001157600080fd5b5062000032620000266200003860201b60201c565b6200004060201b60201c565b62000104565b600033905090565b60008060009054906101000a900473ffffffffffffffffffffffffffffffffffffffff169050816000806101000a81548173ffffffffffffffffffffffffffffffffffffffff021916908373ffffffffffffffffffffffffffffffffffffffff1602179055508173ffffffffffffffffffffffffffffffffffffffff168173ffffffffffffffffffffffffffffffffffffffff167f8be0079c531659141344cd1fd0a4f28419497f9722a3daafe3b4186f6b6457e060405160405180910390a35050565b614cc580620001146000396000f3fe608060405234801561001057600080fd5b50600436106100f55760003560e01c8063af648c3d11610097578063d826f88f11610066578063d826f88f14610228578063e8cc1f3d14610232578063f2009bbb14610250578063f2fde38b1461026c576100f5565b8063af648c3d146101a2578063b301d902146101be578063b4cd313c146101ee578063c12ce87b1461020c576100f5565b8063832880e7116100d3578063832880e71461012a5780638da5cb5b14610148578063a75b87d214610166578063a805765714610184576100f5565b80631e0ea61e146100fa5780633ead71cb14610104578063715018a614610120575b600080fd5b610102610288565b005b61011e60048036038101906101199190613ddc565b61047b565b005b610128610d0f565b005b610132610d23565b60405161013f91906140da565b60405180910390f35b610150610fa0565b60405161015d919061410b565b60405180910390f35b61016e610fc9565b60405161017b9190614205565b60405180910390f35b61018c6112bd565b60405161019991906140da565b60405180910390f35b6101bc60048036038101906101b79190614227565b61159c565b005b6101d860048036038101906101d39190614227565b6119c7565b6040516101e59190614205565b60405180910390f35b6101f6611cbd565b60405161020391906140da565b60405180910390f35b61022660048036038101906102219190613ddc565b611f3a565b005b61023061249c565b005b61023a612ab4565b6040516102479190614316565b60405180910390f35b61026a600480360381019061026591906143ba565b613018565b005b61028660048036038101906102819190614227565b613529565b005b3373ffffffffffffffffffffffffffffffffffffffff16600260003373ffffffffffffffffffffffffffffffffffffffff1673ffffffffffffffffffffffffffffffffffffffff16815260200190815260200160002060000160009054906101000a900473ffffffffffffffffffffffffffffffffffffffff1673ffffffffffffffffffffffffffffffffffffffff1614610358576040517f08c379a000000000000000000000000000000000000000000000000000000000815260040161034f90614477565b60405180910390fd5b6000600381111561036c5761036b613f13565b5b600260003373ffffffffffffffffffffffffffffffffffffffff1673ffffffffffffffffffffffffffffffffffffffff16815260200190815260200160002060040160009054906101000a900460ff1660038111156103ce576103cd613f13565b5b1461040e576040517f08c379a0000000000000000000000000000000000000000000000000000000008152600401610405906144e3565b60405180910390fd5b6001600260003373ffffffffffffffffffffffffffffffffffffffff1673ffffffffffffffffffffffffffffffffffffffff16815260200190815260200160002060040160006101000a81548160ff0219169083600381111561047457610473613f13565b5b0217905550565b3373ffffffffffffffffffffffffffffffffffffffff16600260003373ffffffffffffffffffffffffffffffffffffffff1673ffffffffffffffffffffffffffffffffffffffff16815260200190815260200160002060000160009054906101000a900473ffffffffffffffffffffffffffffffffffffffff1673ffffffffffffffffffffffffffffffffffffffff161461054b576040517f08c379a000000000000000000000000000000000000000000000000000000000815260040161054290614477565b60405180910390fd5b6002600381111561055f5761055e613f13565b5b600260003373ffffffffffffffffffffffffffffffffffffffff1673ffffffffffffffffffffffffffffffffffffffff16815260200190815260200160002060040160009054906101000a900460ff1660038111156105c1576105c0613f13565b5b14610601576040517f08c379a00000000000000000000000000000000000000000000000000000000081526004016105f890614575565b60405180910390fd5b600073ffffffffffffffffffffffffffffffffffffffff1660016000600260003373ffffffffffffffffffffffffffffffffffffffff1673ffffffffffffffffffffffffffffffffffffffff16815260200190815260200160002060010160009054906101000a900473ffffffffffffffffffffffffffffffffffffffff1673ffffffffffffffffffffffffffffffffffffffff1673ffffffffffffffffffffffffffffffffffffffff16815260200190815260200160002060030160019054906101000a900473ffffffffffffffffffffffffffffffffffffffff1673ffffffffffffffffffffffffffffffffffffffff1614806107ef57508273ffffffffffffffffffffffffffffffffffffffff1660016000600260003373ffffffffffffffffffffffffffffffffffffffff1673ffffffffffffffffffffffffffffffffffffffff16815260200190815260200160002060010160009054906101000a900473ffffffffffffffffffffffffffffffffffffffff1673ffffffffffffffffffffffffffffffffffffffff1673ffffffffffffffffffffffffffffffffffffffff16815260200190815260200160002060030160019054906101000a900473ffffffffffffffffffffffffffffffffffffffff1673ffffffffffffffffffffffffffffffffffffffff16145b61082e576040517f08c379a000000000000000000000000000000000000000000000000000000000815260040161082590614607565b60405180910390fd5b600073ffffffffffffffffffffffffffffffffffffffff1660016000600260003373ffffffffffffffffffffffffffffffffffffffff1673ffffffffffffffffffffffffffffffffffffffff16815260200190815260200160002060010160009054906101000a900473ffffffffffffffffffffffffffffffffffffffff1673ffffffffffffffffffffffffffffffffffffffff1673ffffffffffffffffffffffffffffffffffffffff16815260200190815260200160002060030160019054906101000a900473ffffffffffffffffffffffffffffffffffffffff1673ffffffffffffffffffffffffffffffffffffffff1603610c4d578260016000600260003373ffffffffffffffffffffffffffffffffffffffff1673ffffffffffffffffffffffffffffffffffffffff16815260200190815260200160002060010160009054906101000a900473ffffffffffffffffffffffffffffffffffffffff1673ffffffffffffffffffffffffffffffffffffffff1673ffffffffffffffffffffffffffffffffffffffff16815260200190815260200160002060030160016101000a81548173ffffffffffffffffffffffffffffffffffffffff021916908373ffffffffffffffffffffffffffffffffffffffff16021790555060016000600260003373ffffffffffffffffffffffffffffffffffffffff1673ffffffffffffffffffffffffffffffffffffffff16815260200190815260200160002060010160009054906101000a900473ffffffffffffffffffffffffffffffffffffffff1673ffffffffffffffffffffffffffffffffffffffff1673ffffffffffffffffffffffffffffffffffffffff168152602001908152602001600020600360008573ffffffffffffffffffffffffffffffffffffffff1673ffffffffffffffffffffffffffffffffffffffff1681526020019081526020016000206000820160009054906101000a900473ffffffffffffffffffffffffffffffffffffffff168160000160006101000a81548173ffffffffffffffffffffffffffffffffffffffff021916908373ffffffffffffffffffffffffffffffffffffffff1602179055506001820181600101908054610b66929190613925565b50600282015481600201556003820160009054906101000a900460ff168160030160006101000a81548160ff02191690836002811115610ba957610ba8613f13565b5b02179055506003820160019054906101000a900473ffffffffffffffffffffffffffffffffffffffff168160030160016101000a81548173ffffffffffffffffffffffffffffffffffffffff021916908373ffffffffffffffffffffffffffffffffffffffff1602179055506004820181600401908054610c2990614656565b610c34929190613977565b5060058201548160050155600682015481600601559050505b6003600260003373ffffffffffffffffffffffffffffffffffffffff1673ffffffffffffffffffffffffffffffffffffffff16815260200190815260200160002060040160006101000a81548160ff02191690836003811115610cb357610cb2613f13565b5b02179055508181600260003373ffffffffffffffffffffffffffffffffffffffff1673ffffffffffffffffffffffffffffffffffffffff1681526020019081526020016000206003019190610d09929190613a04565b50505050565b610d176135ac565b610d21600061362a565b565b610d2b613a8a565b600160003373ffffffffffffffffffffffffffffffffffffffff1673ffffffffffffffffffffffffffffffffffffffff168152602001908152602001600020604051806101000160405290816000820160009054906101000a900473ffffffffffffffffffffffffffffffffffffffff1673ffffffffffffffffffffffffffffffffffffffff1673ffffffffffffffffffffffffffffffffffffffff16815260200160018201805480602002602001604051908101604052809291908181526020018280548015610e5157602002820191906000526020600020905b8160009054906101000a900473ffffffffffffffffffffffffffffffffffffffff1673ffffffffffffffffffffffffffffffffffffffff1681526020019060010190808311610e07575b50505050508152602001600282015481526020016003820160009054906101000a900460ff166002811115610e8957610e88613f13565b5b6002811115610e9b57610e9a613f13565b5b81526020016003820160019054906101000a900473ffffffffffffffffffffffffffffffffffffffff1673ffffffffffffffffffffffffffffffffffffffff1673ffffffffffffffffffffffffffffffffffffffff168152602001600482018054610f0590614656565b80601f0160208091040260200160405190810160405280929190818152602001828054610f3190614656565b8015610f7e5780601f10610f5357610100808354040283529160200191610f7e565b820191906000526020600020905b815481529060010190602001808311610f6157829003601f168201915b5050505050815260200160058201548152602001600682015481525050905090565b60008060009054906101000a900473ffffffffffffffffffffffffffffffffffffffff16905090565b610fd1613b0d565b600260003373ffffffffffffffffffffffffffffffffffffffff1673ffffffffffffffffffffffffffffffffffffffff1681526020019081526020016000206040518060c00160405290816000820160009054906101000a900473ffffffffffffffffffffffffffffffffffffffff1673ffffffffffffffffffffffffffffffffffffffff1673ffffffffffffffffffffffffffffffffffffffff1681526020016001820160009054906101000a900473ffffffffffffffffffffffffffffffffffffffff1673ffffffffffffffffffffffffffffffffffffffff1673ffffffffffffffffffffffffffffffffffffffff1681526020016002820180546110d790614656565b80601f016020809104026020016040519081016040528092919081815260200182805461110390614656565b80156111505780601f1061112557610100808354040283529160200191611150565b820191906000526020600020905b81548152906001019060200180831161113357829003601f168201915b5050505050815260200160038201805461116990614656565b80601f016020809104026020016040519081016040528092919081815260200182805461119590614656565b80156111e25780601f106111b7576101008083540402835291602001916111e2565b820191906000526020600020905b8154815290600101906020018083116111c557829003601f168201915b505050505081526020016004820160009054906101000a900460ff1660038111156112105761120f613f13565b5b600381111561122257611221613f13565b5b815260200160058201805461123690614656565b80601f016020809104026020016040519081016040528092919081815260200182805461126290614656565b80156112af5780601f10611284576101008083540402835291602001916112af565b820191906000526020600020905b81548152906001019060200180831161129257829003601f168201915b505050505081525050905090565b6112c5613a8a565b60016000600260003373ffffffffffffffffffffffffffffffffffffffff1673ffffffffffffffffffffffffffffffffffffffff16815260200190815260200160002060010160009054906101000a900473ffffffffffffffffffffffffffffffffffffffff1673ffffffffffffffffffffffffffffffffffffffff1673ffffffffffffffffffffffffffffffffffffffff168152602001908152602001600020604051806101000160405290816000820160009054906101000a900473ffffffffffffffffffffffffffffffffffffffff1673ffffffffffffffffffffffffffffffffffffffff1673ffffffffffffffffffffffffffffffffffffffff1681526020016001820180548060200260200160405190810160405280929190818152602001828054801561144d57602002820191906000526020600020905b8160009054906101000a900473ffffffffffffffffffffffffffffffffffffffff1673ffffffffffffffffffffffffffffffffffffffff1681526020019060010190808311611403575b50505050508152602001600282015481526020016003820160009054906101000a900460ff16600281111561148557611484613f13565b5b600281111561149757611496613f13565b5b81526020016003820160019054906101000a900473ffffffffffffffffffffffffffffffffffffffff1673ffffffffffffffffffffffffffffffffffffffff1673ffffffffffffffffffffffffffffffffffffffff16815260200160048201805461150190614656565b80601f016020809104026020016040519081016040528092919081815260200182805461152d90614656565b801561157a5780601f1061154f5761010080835404028352916020019161157a565b820191906000526020600020905b81548152906001019060200180831161155d57829003601f168201915b5050505050815260200160058201548152602001600682015481525050905090565b3373ffffffffffffffffffffffffffffffffffffffff16600160003373ffffffffffffffffffffffffffffffffffffffff1673ffffffffffffffffffffffffffffffffffffffff16815260200190815260200160002060000160009054906101000a900473ffffffffffffffffffffffffffffffffffffffff1673ffffffffffffffffffffffffffffffffffffffff161461166c576040517f08c379a0000000000000000000000000000000000000000000000000000000008152600401611663906146d3565b60405180910390fd5b6000600160003373ffffffffffffffffffffffffffffffffffffffff1673ffffffffffffffffffffffffffffffffffffffff16815260200190815260200160002090506000805b8260020154811015611930578115611771578260010181815481106116db576116da6146f3565b5b9060005260206000200160009054906101000a900473ffffffffffffffffffffffffffffffffffffffff16836001016001836117179190614751565b81548110611728576117276146f3565b5b9060005260206000200160006101000a81548173ffffffffffffffffffffffffffffffffffffffff021916908373ffffffffffffffffffffffffffffffffffffffff1602179055505b8373ffffffffffffffffffffffffffffffffffffffff1683600101828154811061179e5761179d6146f3565b5b9060005260206000200160009054906101000a900473ffffffffffffffffffffffffffffffffffffffff1673ffffffffffffffffffffffffffffffffffffffff160361191d5760008360010182815481106117fc576117fb6146f3565b5b9060005260206000200160006101000a81548173ffffffffffffffffffffffffffffffffffffffff021916908373ffffffffffffffffffffffffffffffffffffffff160217905550600260008573ffffffffffffffffffffffffffffffffffffffff1673ffffffffffffffffffffffffffffffffffffffff168152602001908152602001600020600080820160006101000a81549073ffffffffffffffffffffffffffffffffffffffff02191690556001820160006101000a81549073ffffffffffffffffffffffffffffffffffffffff02191690556002820160006118e29190613b81565b6003820160006118f29190613b81565b6004820160006101000a81549060ff02191690556005820160006119169190613b81565b5050600191505b808061192890614785565b9150506116b3565b5080156119c2576000826001016001846002015461194e9190614751565b8154811061195f5761195e6146f3565b5b9060005260206000200160006101000a81548173ffffffffffffffffffffffffffffffffffffffff021916908373ffffffffffffffffffffffffffffffffffffffff1602179055508160020160008154809291906119bc906147cd565b91905055505b505050565b6119cf613b0d565b600260008373ffffffffffffffffffffffffffffffffffffffff1673ffffffffffffffffffffffffffffffffffffffff1681526020019081526020016000206040518060c00160405290816000820160009054906101000a900473ffffffffffffffffffffffffffffffffffffffff1673ffffffffffffffffffffffffffffffffffffffff1673ffffffffffffffffffffffffffffffffffffffff1681526020016001820160009054906101000a900473ffffffffffffffffffffffffffffffffffffffff1673ffffffffffffffffffffffffffffffffffffffff1673ffffffffffffffffffffffffffffffffffffffff168152602001600282018054611ad590614656565b80601f0160208091040260200160405190810160405280929190818152602001828054611b0190614656565b8015611b4e5780601f10611b2357610100808354040283529160200191611b4e565b820191906000526020600020905b815481529060010190602001808311611b3157829003601f168201915b50505050508152602001600382018054611b6790614656565b80601f0160208091040260200160405190810160405280929190818152602001828054611b9390614656565b8015611be05780601f10611bb557610100808354040283529160200191611be0565b820191906000526020600020905b815481529060010190602001808311611bc357829003601f168201915b505050505081526020016004820160009054906101000a900460ff166003811115611c0e57611c0d613f13565b5b6003811115611c2057611c1f613f13565b5b8152602001600582018054611c3490614656565b80601f0160208091040260200160405190810160405280929190818152602001828054611c6090614656565b8015611cad5780601f10611c8257610100808354040283529160200191611cad565b820191906000526020600020905b815481529060010190602001808311611c9057829003601f168201915b5050505050815250509050919050565b611cc5613a8a565b600360003373ffffffffffffffffffffffffffffffffffffffff1673ffffffffffffffffffffffffffffffffffffffff168152602001908152602001600020604051806101000160405290816000820160009054906101000a900473ffffffffffffffffffffffffffffffffffffffff1673ffffffffffffffffffffffffffffffffffffffff1673ffffffffffffffffffffffffffffffffffffffff16815260200160018201805480602002602001604051908101604052809291908181526020018280548015611deb57602002820191906000526020600020905b8160009054906101000a900473ffffffffffffffffffffffffffffffffffffffff1673ffffffffffffffffffffffffffffffffffffffff1681526020019060010190808311611da1575b50505050508152602001600282015481526020016003820160009054906101000a900460ff166002811115611e2357611e22613f13565b5b6002811115611e3557611e34613f13565b5b81526020016003820160019054906101000a900473ffffffffffffffffffffffffffffffffffffffff1673ffffffffffffffffffffffffffffffffffffffff1673ffffffffffffffffffffffffffffffffffffffff168152602001600482018054611e9f90614656565b80601f0160208091040260200160405190810160405280929190818152602001828054611ecb90614656565b8015611f185780601f10611eed57610100808354040283529160200191611f18565b820191906000526020600020905b815481529060010190602001808311611efb57829003601f168201915b5050505050815260200160058201548152602001600682015481525050905090565b8273ffffffffffffffffffffffffffffffffffffffff16600260008573ffffffffffffffffffffffffffffffffffffffff1673ffffffffffffffffffffffffffffffffffffffff16815260200190815260200160002060000160009054906101000a900473ffffffffffffffffffffffffffffffffffffffff1673ffffffffffffffffffffffffffffffffffffffff160361200a576040517f08c379a000000000000000000000000000000000000000000000000000000000815260040161200190614868565b60405180910390fd5b3373ffffffffffffffffffffffffffffffffffffffff16600160003373ffffffffffffffffffffffffffffffffffffffff1673ffffffffffffffffffffffffffffffffffffffff16815260200190815260200160002060000160009054906101000a900473ffffffffffffffffffffffffffffffffffffffff1673ffffffffffffffffffffffffffffffffffffffff16146120a8576120a76136ee565b5b6000600160003373ffffffffffffffffffffffffffffffffffffffff1673ffffffffffffffffffffffffffffffffffffffff168152602001908152602001600020905060005b81600201548110156121bb578473ffffffffffffffffffffffffffffffffffffffff16826001018281548110612127576121266146f3565b5b9060005260206000200160009054906101000a900473ffffffffffffffffffffffffffffffffffffffff1673ffffffffffffffffffffffffffffffffffffffff16036121a8576040517f08c379a000000000000000000000000000000000000000000000000000000000815260040161219f906148d4565b60405180910390fd5b80806121b390614785565b9150506120ee565b506040518060c001604052808573ffffffffffffffffffffffffffffffffffffffff1681526020013373ffffffffffffffffffffffffffffffffffffffff1681526020016040518060200160405280600081525081526020016040518060200160405280600081525081526020016000600381111561223d5761223c613f13565b5b815260200184848080601f016020809104026020016040519081016040528093929190818152602001838380828437600081840152601f19601f82011690508083019250505050505050815250600260008673ffffffffffffffffffffffffffffffffffffffff1673ffffffffffffffffffffffffffffffffffffffff16815260200190815260200160002060008201518160000160006101000a81548173ffffffffffffffffffffffffffffffffffffffff021916908373ffffffffffffffffffffffffffffffffffffffff16021790555060208201518160010160006101000a81548173ffffffffffffffffffffffffffffffffffffffff021916908373ffffffffffffffffffffffffffffffffffffffff1602179055506040820151816002019080519060200190612373929190613bc1565b506060820151816003019080519060200190612390929190613bc1565b5060808201518160040160006101000a81548160ff021916908360038111156123bc576123bb613f13565b5b021790555060a08201518160050190805190602001906123dd929190613bc1565b509050508381600101600160003373ffffffffffffffffffffffffffffffffffffffff1673ffffffffffffffffffffffffffffffffffffffff168152602001908152602001600020600201600081548092919061243990614785565b919050558154811061244e5761244d6146f3565b5b9060005260206000200160006101000a81548173ffffffffffffffffffffffffffffffffffffffff021916908373ffffffffffffffffffffffffffffffffffffffff16021790555050505050565b3373ffffffffffffffffffffffffffffffffffffffff16600160003373ffffffffffffffffffffffffffffffffffffffff1673ffffffffffffffffffffffffffffffffffffffff16815260200190815260200160002060000160009054906101000a900473ffffffffffffffffffffffffffffffffffffffff1673ffffffffffffffffffffffffffffffffffffffff161461256c576040517f08c379a0000000000000000000000000000000000000000000000000000000008152600401612563906146d3565b60405180910390fd5b6000600160003373ffffffffffffffffffffffffffffffffffffffff1673ffffffffffffffffffffffffffffffffffffffff168152602001908152602001600020604051806101000160405290816000820160009054906101000a900473ffffffffffffffffffffffffffffffffffffffff1673ffffffffffffffffffffffffffffffffffffffff1673ffffffffffffffffffffffffffffffffffffffff1681526020016001820180548060200260200160405190810160405280929190818152602001828054801561269457602002820191906000526020600020905b8160009054906101000a900473ffffffffffffffffffffffffffffffffffffffff1673ffffffffffffffffffffffffffffffffffffffff168152602001906001019080831161264a575b50505050508152602001600282015481526020016003820160009054906101000a900460ff1660028111156126cc576126cb613f13565b5b60028111156126de576126dd613f13565b5b81526020016003820160019054906101000a900473ffffffffffffffffffffffffffffffffffffffff1673ffffffffffffffffffffffffffffffffffffffff1673ffffffffffffffffffffffffffffffffffffffff16815260200160048201805461274890614656565b80601f016020809104026020016040519081016040528092919081815260200182805461277490614656565b80156127c15780601f10612796576101008083540402835291602001916127c1565b820191906000526020600020905b8154815290600101906020018083116127a457829003601f168201915b5050505050815260200160058201548152602001600682015481525050905060005b81604001518110156128f457600260008360200151838151811061280a576128096146f3565b5b602002602001015173ffffffffffffffffffffffffffffffffffffffff1673ffffffffffffffffffffffffffffffffffffffff168152602001908152602001600020600080820160006101000a81549073ffffffffffffffffffffffffffffffffffffffff02191690556001820160006101000a81549073ffffffffffffffffffffffffffffffffffffffff02191690556002820160006128ab9190613b81565b6003820160006128bb9190613b81565b6004820160006101000a81549060ff02191690556005820160006128df9190613b81565b505080806128ec90614785565b9150506127e3565b5060036000826080015173ffffffffffffffffffffffffffffffffffffffff1673ffffffffffffffffffffffffffffffffffffffff168152602001908152602001600020600080820160006101000a81549073ffffffffffffffffffffffffffffffffffffffff02191690556001820160006129709190613c47565b60028201600090556003820160006101000a81549060ff02191690556003820160016101000a81549073ffffffffffffffffffffffffffffffffffffffff02191690556004820160006129c39190613b81565b600582016000905560068201600090555050600160003373ffffffffffffffffffffffffffffffffffffffff1673ffffffffffffffffffffffffffffffffffffffff168152602001908152602001600020600080820160006101000a81549073ffffffffffffffffffffffffffffffffffffffff0219169055600182016000612a4c9190613c47565b60028201600090556003820160006101000a81549060ff02191690556003820160016101000a81549073ffffffffffffffffffffffffffffffffffffffff0219169055600482016000612a9f9190613b81565b60058201600090556006820160009055505050565b60603373ffffffffffffffffffffffffffffffffffffffff16600360003373ffffffffffffffffffffffffffffffffffffffff1673ffffffffffffffffffffffffffffffffffffffff16815260200190815260200160002060030160019054906101000a900473ffffffffffffffffffffffffffffffffffffffff1673ffffffffffffffffffffffffffffffffffffffff1614612b86576040517f08c379a0000000000000000000000000000000000000000000000000000000008152600401612b7d906146d3565b60405180910390fd5b6000600360003373ffffffffffffffffffffffffffffffffffffffff1673ffffffffffffffffffffffffffffffffffffffff168152602001908152602001600020604051806101000160405290816000820160009054906101000a900473ffffffffffffffffffffffffffffffffffffffff1673ffffffffffffffffffffffffffffffffffffffff1673ffffffffffffffffffffffffffffffffffffffff16815260200160018201805480602002602001604051908101604052809291908181526020018280548015612cae57602002820191906000526020600020905b8160009054906101000a900473ffffffffffffffffffffffffffffffffffffffff1673ffffffffffffffffffffffffffffffffffffffff1681526020019060010190808311612c64575b50505050508152602001600282015481526020016003820160009054906101000a900460ff166002811115612ce657612ce5613f13565b5b6002811115612cf857612cf7613f13565b5b81526020016003820160019054906101000a900473ffffffffffffffffffffffffffffffffffffffff1673ffffffffffffffffffffffffffffffffffffffff1673ffffffffffffffffffffffffffffffffffffffff168152602001600482018054612d6290614656565b80601f0160208091040260200160405190810160405280929190818152602001828054612d8e90614656565b8015612ddb5780601f10612db057610100808354040283529160200191612ddb565b820191906000526020600020905b815481529060010190602001808311612dbe57829003601f168201915b505050505081526020016005820154815260200160068201548152505090506000600567ffffffffffffffff811115612e1757612e166148f4565b5b604051908082528060200260200182016040528015612e4a57816020015b6060815260200190600190039081612e355790505b50905060005b826040015181101561300f57600380811115612e6f57612e6e613f13565b5b6002600085602001518481518110612e8a57612e896146f3565b5b602002602001015173ffffffffffffffffffffffffffffffffffffffff1673ffffffffffffffffffffffffffffffffffffffff16815260200190815260200160002060040160009054906101000a900460ff166003811115612eef57612eee613f13565b5b03612ffc576002600084602001518381518110612f0f57612f0e6146f3565b5b602002602001015173ffffffffffffffffffffffffffffffffffffffff1673ffffffffffffffffffffffffffffffffffffffff1681526020019081526020016000206003018054612f5f90614656565b80601f0160208091040260200160405190810160405280929190818152602001828054612f8b90614656565b8015612fd85780601f10612fad57610100808354040283529160200191612fd8565b820191906000526020600020905b815481529060010190602001808311612fbb57829003601f168201915b5050505050828281518110612ff057612fef6146f3565b5b60200260200101819052505b808061300790614785565b915050612e50565b50809250505090565b3373ffffffffffffffffffffffffffffffffffffffff16600160003373ffffffffffffffffffffffffffffffffffffffff1673ffffffffffffffffffffffffffffffffffffffff16815260200190815260200160002060000160009054906101000a900473ffffffffffffffffffffffffffffffffffffffff1673ffffffffffffffffffffffffffffffffffffffff16146130e8576040517f08c379a00000000000000000000000000000000000000000000000000000000081526004016130df906146d3565b60405180910390fd5b8083839050101561312e576040517f08c379a000000000000000000000000000000000000000000000000000000000815260040161312590614995565b60405180910390fd5b82829050600160003373ffffffffffffffffffffffffffffffffffffffff1673ffffffffffffffffffffffffffffffffffffffff16815260200190815260200160002060020154146131b5576040517f08c379a00000000000000000000000000000000000000000000000000000000081526004016131ac90614a27565b60405180910390fd5b80600160003373ffffffffffffffffffffffffffffffffffffffff1673ffffffffffffffffffffffffffffffffffffffff16815260200190815260200160002060020154101561323a576040517f08c379a000000000000000000000000000000000000000000000000000000000815260040161323190614a93565b60405180910390fd5b6000600160003373ffffffffffffffffffffffffffffffffffffffff1673ffffffffffffffffffffffffffffffffffffffff16815260200190815260200160002060020154905060005b818110156134b8576000600160003373ffffffffffffffffffffffffffffffffffffffff1673ffffffffffffffffffffffffffffffffffffffff16815260200190815260200160002060010182815481106132e2576132e16146f3565b5b9060005260206000200160009054906101000a900473ffffffffffffffffffffffffffffffffffffffff1690506000600381111561332357613322613f13565b5b600260008373ffffffffffffffffffffffffffffffffffffffff1673ffffffffffffffffffffffffffffffffffffffff16815260200190815260200160002060040160009054906101000a900460ff16600381111561338557613384613f13565b5b036133c5576040517f08c379a00000000000000000000000000000000000000000000000000000000081526004016133bc90614aff565b60405180910390fd5b60028060008373ffffffffffffffffffffffffffffffffffffffff1673ffffffffffffffffffffffffffffffffffffffff16815260200190815260200160002060040160006101000a81548160ff0219169083600381111561342a57613429613f13565b5b0217905550858583818110613442576134416146f3565b5b90506020028101906134549190614b2e565b600260008473ffffffffffffffffffffffffffffffffffffffff1673ffffffffffffffffffffffffffffffffffffffff16815260200190815260200160002060020191906134a3929190613a04565b505080806134b090614785565b915050613284565b5060018060003373ffffffffffffffffffffffffffffffffffffffff1673ffffffffffffffffffffffffffffffffffffffff16815260200190815260200160002060030160006101000a81548160ff0219169083600281111561351e5761351d613f13565b5b021790555050505050565b6135316135ac565b600073ffffffffffffffffffffffffffffffffffffffff168173ffffffffffffffffffffffffffffffffffffffff16036135a0576040517f08c379a000000000000000000000000000000000000000000000000000000000815260040161359790614c03565b60405180910390fd5b6135a98161362a565b50565b6135b461391d565b73ffffffffffffffffffffffffffffffffffffffff166135d2610fa0565b73ffffffffffffffffffffffffffffffffffffffff1614613628576040517f08c379a000000000000000000000000000000000000000000000000000000000815260040161361f90614c6f565b60405180910390fd5b565b60008060009054906101000a900473ffffffffffffffffffffffffffffffffffffffff169050816000806101000a81548173ffffffffffffffffffffffffffffffffffffffff021916908373ffffffffffffffffffffffffffffffffffffffff1602179055508173ffffffffffffffffffffffffffffffffffffffff168173ffffffffffffffffffffffffffffffffffffffff167f8be0079c531659141344cd1fd0a4f28419497f9722a3daafe3b4186f6b6457e060405160405180910390a35050565b6040518061010001604052803373ffffffffffffffffffffffffffffffffffffffff168152602001600567ffffffffffffffff811115613731576137306148f4565b5b60405190808252806020026020018201604052801561375f5781602001602082028036833780820191505090505b50815260200160008152602001600060028111156137805761377f613f13565b5b8152602001600073ffffffffffffffffffffffffffffffffffffffff168152602001604051806020016040528060008152508152602001600081526020016000815250600160003373ffffffffffffffffffffffffffffffffffffffff1673ffffffffffffffffffffffffffffffffffffffff16815260200190815260200160002060008201518160000160006101000a81548173ffffffffffffffffffffffffffffffffffffffff021916908373ffffffffffffffffffffffffffffffffffffffff1602179055506020820151816001019080519060200190613865929190613c68565b506040820151816002015560608201518160030160006101000a81548160ff0219169083600281111561389b5761389a613f13565b5b021790555060808201518160030160016101000a81548173ffffffffffffffffffffffffffffffffffffffff021916908373ffffffffffffffffffffffffffffffffffffffff16021790555060a0820151816004019080519060200190613903929190613bc1565b5060c0820151816005015560e08201518160060155905050565b600033905090565b8280548282559060005260206000209081019282156139665760005260206000209182015b8281111561396557825482559160010191906001019061394a565b5b5090506139739190613cf2565b5090565b82805461398390614656565b90600052602060002090601f0160209004810192826139a557600085556139f3565b82601f106139b657805485556139f3565b828001600101855582156139f357600052602060002091601f016020900482015b828111156139f25782548255916001019190600101906139d7565b5b509050613a009190613cf2565b5090565b828054613a1090614656565b90600052602060002090601f016020900481019282613a325760008555613a79565b82601f10613a4b57803560ff1916838001178555613a79565b82800160010185558215613a79579182015b82811115613a78578235825591602001919060010190613a5d565b5b509050613a869190613cf2565b5090565b604051806101000160405280600073ffffffffffffffffffffffffffffffffffffffff168152602001606081526020016000815260200160006002811115613ad557613ad4613f13565b5b8152602001600073ffffffffffffffffffffffffffffffffffffffff1681526020016060815260200160008152602001600081525090565b6040518060c00160405280600073ffffffffffffffffffffffffffffffffffffffff168152602001600073ffffffffffffffffffffffffffffffffffffffff168152602001606081526020016060815260200160006003811115613b7457613b73613f13565b5b8152602001606081525090565b508054613b8d90614656565b6000825580601f10613b9f5750613bbe565b601f016020900490600052602060002090810190613bbd9190613cf2565b5b50565b828054613bcd90614656565b90600052602060002090601f016020900481019282613bef5760008555613c36565b82601f10613c0857805160ff1916838001178555613c36565b82800160010185558215613c36579182015b82811115613c35578251825591602001919060010190613c1a565b5b509050613c439190613cf2565b5090565b5080546000825590600052602060002090810190613c659190613cf2565b50565b828054828255906000526020600020908101928215613ce1579160200282015b82811115613ce05782518260006101000a81548173ffffffffffffffffffffffffffffffffffffffff021916908373ffffffffffffffffffffffffffffffffffffffff16021790555091602001919060010190613c88565b5b509050613cee9190613cf2565b5090565b5b80821115613d0b576000816000905550600101613cf3565b5090565b600080fd5b600080fd5b600073ffffffffffffffffffffffffffffffffffffffff82169050919050565b6000613d4482613d19565b9050919050565b613d5481613d39565b8114613d5f57600080fd5b50565b600081359050613d7181613d4b565b92915050565b600080fd5b600080fd5b600080fd5b60008083601f840112613d9c57613d9b613d77565b5b8235905067ffffffffffffffff811115613db957613db8613d7c565b5b602083019150836001820283011115613dd557613dd4613d81565b5b9250929050565b600080600060408486031215613df557613df4613d0f565b5b6000613e0386828701613d62565b935050602084013567ffffffffffffffff811115613e2457613e23613d14565b5b613e3086828701613d86565b92509250509250925092565b613e4581613d39565b82525050565b600081519050919050565b600082825260208201905092915050565b6000819050602082019050919050565b6000613e838383613e3c565b60208301905092915050565b6000602082019050919050565b6000613ea782613e4b565b613eb18185613e56565b9350613ebc83613e67565b8060005b83811015613eed578151613ed48882613e77565b9750613edf83613e8f565b925050600181019050613ec0565b5085935050505092915050565b6000819050919050565b613f0d81613efa565b82525050565b7f4e487b7100000000000000000000000000000000000000000000000000000000600052602160045260246000fd5b60038110613f5357613f52613f13565b5b50565b6000819050613f6482613f42565b919050565b6000613f7482613f56565b9050919050565b613f8481613f69565b82525050565b600081519050919050565b600082825260208201905092915050565b60005b83811015613fc4578082015181840152602081019050613fa9565b83811115613fd3576000848401525b50505050565b6000601f19601f8301169050919050565b6000613ff582613f8a565b613fff8185613f95565b935061400f818560208601613fa6565b61401881613fd9565b840191505092915050565b60006101008301600083015161403c6000860182613e3c565b50602083015184820360208601526140548282613e9c565b91505060408301516140696040860182613f04565b50606083015161407c6060860182613f7b565b50608083015161408f6080860182613e3c565b5060a083015184820360a08601526140a78282613fea565b91505060c08301516140bc60c0860182613f04565b5060e08301516140cf60e0860182613f04565b508091505092915050565b600060208201905081810360008301526140f48184614023565b905092915050565b61410581613d39565b82525050565b600060208201905061412060008301846140fc565b92915050565b6004811061413757614136613f13565b5b50565b600081905061414882614126565b919050565b60006141588261413a565b9050919050565b6141688161414d565b82525050565b600060c0830160008301516141866000860182613e3c565b5060208301516141996020860182613e3c565b50604083015184820360408601526141b18282613fea565b915050606083015184820360608601526141cb8282613fea565b91505060808301516141e0608086018261415f565b5060a083015184820360a08601526141f88282613fea565b9150508091505092915050565b6000602082019050818103600083015261421f818461416e565b905092915050565b60006020828403121561423d5761423c613d0f565b5b600061424b84828501613d62565b91505092915050565b600081519050919050565b600082825260208201905092915050565b6000819050602082019050919050565b600061428c8383613fea565b905092915050565b6000602082019050919050565b60006142ac82614254565b6142b6818561425f565b9350836020820285016142c885614270565b8060005b8581101561430457848403895281516142e58582614280565b94506142f083614294565b925060208a019950506001810190506142cc565b50829750879550505050505092915050565b6000602082019050818103600083015261433081846142a1565b905092915050565b60008083601f84011261434e5761434d613d77565b5b8235905067ffffffffffffffff81111561436b5761436a613d7c565b5b60208301915083602082028301111561438757614386613d81565b5b9250929050565b61439781613efa565b81146143a257600080fd5b50565b6000813590506143b48161438e565b92915050565b6000806000604084860312156143d3576143d2613d0f565b5b600084013567ffffffffffffffff8111156143f1576143f0613d14565b5b6143fd86828701614338565b93509350506020614410868287016143a5565b9150509250925092565b600082825260208201905092915050565b7f596f75277265206e6f74206120677561726469616e0000000000000000000000600082015250565b600061446160158361441a565b915061446c8261442b565b602082019050919050565b6000602082019050818103600083015261449081614454565b9050919050565b7f596f7520617265206e6f742070656e64696e672070726f746563740000000000600082015250565b60006144cd601b8361441a565b91506144d882614497565b602082019050919050565b600060208201905081810360008301526144fc816144c0565b9050919050565b7f596f7520617265206e6f742070726f74656374696e6720616e7920736563726560008201527f7400000000000000000000000000000000000000000000000000000000000000602082015250565b600061455f60218361441a565b915061456a82614503565b604082019050919050565b6000602082019050818103600083015261458e81614552565b9050919050565b7f7265636f766572794164647265737320697320616c726561647920736574207460008201527f6f20616e6f74686572206f6e6500000000000000000000000000000000000000602082015250565b60006145f1602d8361441a565b91506145fc82614595565b604082019050919050565b60006020820190508181036000830152614620816145e4565b9050919050565b7f4e487b7100000000000000000000000000000000000000000000000000000000600052602260045260246000fd5b6000600282049050600182168061466e57607f821691505b60208210810361468157614680614627565b5b50919050565b7f596f75277265206e6f7420612075736572000000000000000000000000000000600082015250565b60006146bd60118361441a565b91506146c882614687565b602082019050919050565b600060208201905081810360008301526146ec816146b0565b9050919050565b7f4e487b7100000000000000000000000000000000000000000000000000000000600052603260045260246000fd5b7f4e487b7100000000000000000000000000000000000000000000000000000000600052601160045260246000fd5b600061475c82613efa565b915061476783613efa565b92508282101561477a57614779614722565b5b828203905092915050565b600061479082613efa565b91507fffffffffffffffffffffffffffffffffffffffffffffffffffffffffffffffff82036147c2576147c1614722565b5b600182019050919050565b60006147d882613efa565b9150600082036147eb576147ea614722565b5b600182039050919050565b7f54686973206164647265737320697320616c726561647920757365642061732060008201527f6120677561726469616e00000000000000000000000000000000000000000000602082015250565b6000614852602a8361441a565b915061485d826147f6565b604082019050919050565b6000602082019050818103600083015261488181614845565b9050919050565b7f477561726469616e20616c7265616479206578697374732e0000000000000000600082015250565b60006148be60188361441a565b91506148c982614888565b602082019050919050565b600060208201905081810360008301526148ed816148b1565b9050919050565b7f4e487b7100000000000000000000000000000000000000000000000000000000600052604160045260246000fd5b7f746872656173686f6c642073686f756c64206265206c657373206f662065717560008201527f616c73207468616e20736861726573206e756d62657200000000000000000000602082015250565b600061497f60368361441a565b915061498a82614923565b604082019050919050565b600060208201905081810360008301526149ae81614972565b9050919050565b7f596f752073686f756c642068617665207468652073616d65206e756d6265722060008201527f6f6620677561726469616e7320616e6420736861726573000000000000000000602082015250565b6000614a1160378361441a565b9150614a1c826149b5565b604082019050919050565b60006020820190508181036000830152614a4081614a04565b9050919050565b7f596f7520646f6e2774206861766520656e6f75676820677561726469616e7300600082015250565b6000614a7d601f8361441a565b9150614a8882614a47565b602082019050919050565b60006020820190508181036000830152614aac81614a70565b9050919050565b7f4120677561726469616e206973206e6f7420636f6e6669726d65640000000000600082015250565b6000614ae9601b8361441a565b9150614af482614ab3565b602082019050919050565b60006020820190508181036000830152614b1881614adc565b9050919050565b600080fd5b600080fd5b600080fd5b60008083356001602003843603038112614b4b57614b4a614b1f565b5b80840192508235915067ffffffffffffffff821115614b6d57614b6c614b24565b5b602083019250600182023603831315614b8957614b88614b29565b5b509250929050565b7f4f776e61626c653a206e6577206f776e657220697320746865207a65726f206160008201527f6464726573730000000000000000000000000000000000000000000000000000602082015250565b6000614bed60268361441a565b9150614bf882614b91565b604082019050919050565b60006020820190508181036000830152614c1c81614be0565b9050919050565b7f4f776e61626c653a2063616c6c6572206973206e6f7420746865206f776e6572600082015250565b6000614c5960208361441a565b9150614c6482614c23565b602082019050919050565b60006020820190508181036000830152614c8881614c4c565b905091905056fea26469706673582212201e2ef0e05e66c32fc4ce4a2191dfde587c4c05043465c194708f87f15eca025b64736f6c634300080e0033",
  "immutableReferences": {},
  "source": "// SPDX-License-Identifier: MIT\r\n\r\npragma solidity 0.8.14;\r\nimport \"../node_modules/@openzeppelin/contracts/access/Ownable.sol\";\r\n\r\n/// @title SocialRecovery contract used for DeaNa APP\r\n/// @author Julien Lampin\r\n/// @notice This contract allow you to protect your private key (or any information) with guardians. Theses guardian will be able to unlock the secret if enough of them enable it\r\n/// @dev Inherits the OpenZepplin Ownable implentation\r\ncontract SocialRecovery is Ownable {\r\n\r\n    /// @notice Main struture of guardians, guardians are the protector of users and are always related to a specific user\r\n    struct Guardian {\r\n        address guardianAddress;\r\n        address guardianOf;\r\n        string secret;\r\n        string unlockedSecret;\r\n        GuardianStatus guardianStatus;\r\n        string name;\r\n    }\r\n\r\n    /// @notice Main struture of users\r\n    /// @custom:name Explicit name of the user in order to show user friendly information to the guardian\r\n    /// @custom:recoveryAddress If user lost his account and guardians launch a recovery, user will need a new address to recover\r\n    /// @custom:shareCount When secured, indicate in how many shares the key has been dispatched\r\n    /// @custom:threashold When secured, indicate the minimum number of shares required to unlock the main key\r\n    struct User {\r\n        address userAddress;\r\n        address[] guardians;\r\n        uint guardianCount;\r\n        UserAccountStatus accountStatus;\r\n        address recoveryAddress;\r\n        string name;\r\n        uint shareCounts;\r\n        uint threashold;\r\n    }\r\n\r\n    /// @notice UserAccountStatus indicate in which state the user account currently is\r\n    enum UserAccountStatus {\r\n        Init,\r\n        Locked,\r\n        Unlocked\r\n    }\r\n\r\n    /// @notice GuardianStatus indicate in which state the guardian currently is\r\n    enum GuardianStatus {\r\n        Pending,\r\n        Confirmed,\r\n        Locked,\r\n        Unlocked\r\n    }\r\n\r\n    /// @notice GuardianStatus indicate in which state the guardian currently is\r\n    event GuardianStatusChange(address userAddress, address guardianAddress, GuardianStatus statusBefore, GuardianStatus statusAfter, uint256 timestamp);\r\n    event UserAccountStatusChange(address userAddress, UserAccountStatus statusBefore, UserAccountStatus statusAfter, uint256 timestamp);\r\n\r\n    /// @notice Main mapping to retrieve an user using its address\r\n    mapping (address => User) users;\r\n\r\n    /// @notice Main mapping to retrieve an user using its guardian address\r\n    mapping (address => Guardian) guardians;\r\n\r\n    /// @notice Main mapping to retrieve an user using its recover address\r\n    mapping (address => User) recoveryUsers;\r\n\r\n\r\n    modifier onlyUsers() {\r\n        require(users[msg.sender].userAddress == msg.sender, \"You're not a user\");\r\n        _;\r\n    }\r\n\r\n    modifier onlyRecoverUsers() {\r\n        require(recoveryUsers[msg.sender].recoveryAddress == msg.sender, \"You're not a user\");\r\n        _;\r\n    }\r\n\r\n    modifier onlyGuardians() {\r\n        require(guardians[msg.sender].guardianAddress == msg.sender, \"You're not a guardian\");\r\n        _;\r\n    }\r\n\r\n    /*\r\n        event VoterRegistered(address voterAddress, uint256 timestamp);\r\n        event WorkflowStatusChange(WorkflowStatus previousStatus, WorkflowStatus newStatus, uint256 timestamp);\r\n        event ProposalRegistered(address userAddress, string description, uint proposalId, uint256 timestamp);\r\n        event Voted (address voter, uint proposalId, uint256 timestamp);\r\n    */\r\n\r\n    /// @notice Add a new guardian for the user\r\n    /// @param _guardianAddress address of the guardian to add\r\n    /// @param _name name of the guardian, only used for user friendly display\r\n    /// @dev Will be applyed to current user, if no user exist, user will be created\r\n    function addGuardian(address _guardianAddress, string calldata _name) external{\r\n        // Simplification here, user can only be guardian of one person\r\n        require(guardians[_guardianAddress].guardianAddress != _guardianAddress, \"This address is already used as a guardian\");\r\n\r\n        if(users[msg.sender].userAddress != msg.sender){\r\n            initUser();\r\n        }\r\n\r\n        User storage user = users[msg.sender];\r\n        for(uint i = 0 ; i < user.guardianCount ; i++){\r\n            if(user.guardians[i] == _guardianAddress){\r\n                revert(\"Guardian already exists.\");\r\n            }\r\n        }\r\n\r\n        guardians[_guardianAddress] = Guardian({\r\n        name:_name,\r\n        guardianAddress : _guardianAddress,\r\n        guardianStatus: GuardianStatus.Pending,\r\n        secret : \"\",\r\n        guardianOf: msg.sender,\r\n        unlockedSecret: \"\"\r\n        });\r\n\r\n        user.guardians[users[msg.sender].guardianCount++] = _guardianAddress;\r\n    }\r\n\r\n\r\n    function initUser() private {\r\n        users[msg.sender] = User({\r\n        userAddress : msg.sender,\r\n        guardians: new address[](5), // simplification, only 5 guardians allowed\r\n        guardianCount: 0,\r\n        accountStatus : UserAccountStatus.Init,\r\n        recoveryAddress : address(0),\r\n        name : \"\",\r\n        shareCounts : 0,\r\n        threashold : 0\r\n        });\r\n    }\r\n    function reset() onlyUsers external{\r\n        User memory user = users[msg.sender];\r\n\r\n        for(uint i = 0 ; i < user.guardianCount ; i++){\r\n            delete guardians[user.guardians[i]];\r\n        }\r\n        delete recoveryUsers[user.recoveryAddress];\r\n        delete users[msg.sender];\r\n    }\r\n\r\n    /// @notice Revoke a guardian, removing it for user guardian list\r\n    /// @param _guardianAddress address of the guardian to revoke\r\n    /// @dev Allowed only if number of remaining guardian is higher or equal than threashold\r\n    function revokeGuardian(address _guardianAddress) onlyUsers external{\r\n        User storage user = users[msg.sender];\r\n        bool guardianFound = false;\r\n        for(uint i = 0 ; i < user.guardianCount ; i++){\r\n            if(guardianFound){\r\n                user.guardians[i-1] = user.guardians[i];\r\n            }\r\n            if(user.guardians[i] == _guardianAddress){\r\n                user.guardians[i] = address(0);\r\n                delete guardians[_guardianAddress];\r\n                guardianFound = true;\r\n            }\r\n        }\r\n        if(guardianFound){\r\n            user.guardians[user.guardianCount-1] = address(0);\r\n            user.guardianCount--;\r\n        }\r\n    }\r\n\r\n    /// @notice Return the user related to a specific guardian (Assuming here (for the v1) that address can only be used to protect one account)\r\n    /// @return User that sender address is protecting\r\n    function getProtectedUser() external view returns(User memory){\r\n        return users[guardians[msg.sender].guardianOf];\r\n    }\r\n\r\n    /// @notice Return the user related to a specific recovered address\r\n    function getRecoverUser() external view returns(User memory){\r\n        return recoveryUsers[msg.sender];\r\n    }\r\n\r\n    /// @notice Return the user related to caller address\r\n    function getUser() external view returns(User memory){\r\n        return users[msg.sender];\r\n    }\r\n\r\n    function getGuardian(address _guardianAddress) external view returns(Guardian memory){\r\n        return guardians[_guardianAddress];\r\n    }\r\n\r\n    function getGuardian() external view returns(Guardian memory){\r\n        return guardians[msg.sender];\r\n    }\r\n\r\n    /// @notice Method to retrieve guardian secret\r\n    /// @return  The guardian related current secret (this secret is encrypt using guardian key)\r\n    /// @dev can only be used by the guardian itself\r\n    function getUnlockedSecrets() external onlyRecoverUsers view returns(string[] memory){\r\n\r\n        User memory user = recoveryUsers[msg.sender];\r\n        string[] memory secrets = new string[](5);\r\n\r\n        for(uint i = 0 ; i < user.guardianCount ; i++){\r\n            if(guardians[user.guardians[i]].guardianStatus == GuardianStatus.Unlocked){\r\n                secrets[i] =guardians[user.guardians[i]].unlockedSecret;\r\n            }\r\n        }\r\n        return secrets;\r\n    }\r\n\r\n    /// @notice Confirm a guardian protection\r\n    /// @dev can only be used by the guardian itself\r\n    function confirmGuardian() onlyGuardians external{\r\n        require(guardians[msg.sender].guardianStatus == GuardianStatus.Pending, \"You are not pending protect\");\r\n\r\n        guardians[msg.sender].guardianStatus = GuardianStatus.Confirmed;\r\n    }\r\n\r\n    /// @notice Unlock a secret by adding the unlockedSecret to the guardian\r\n    /// @param _recoveryUserAddress recovery address used to encrypt the unlocked secret\r\n    /// @param unlockedSecret decrypt secret from guardian, re-encrypted with user recovery address\r\n    /// @dev if account was in recovery we initialise the recovery mode by setting the _recoveryUserAddress\r\n    function unlock(address _recoveryUserAddress, string calldata unlockedSecret) onlyGuardians external{\r\n        require(guardians[msg.sender].guardianStatus == GuardianStatus.Locked, \"You are not protecting any secret\");\r\n        require(users[guardians[msg.sender].guardianOf].recoveryAddress == address(0) || users[guardians[msg.sender].guardianOf].recoveryAddress == _recoveryUserAddress, \"recoveryAddress is already set to another one\");\r\n\r\n        if(users[guardians[msg.sender].guardianOf].recoveryAddress == address(0)){\r\n            users[guardians[msg.sender].guardianOf].recoveryAddress = _recoveryUserAddress;\r\n            recoveryUsers[_recoveryUserAddress] = users[guardians[msg.sender].guardianOf];\r\n        }\r\n\r\n        guardians[msg.sender].guardianStatus = GuardianStatus.Unlocked;\r\n        guardians[msg.sender].unlockedSecret = unlockedSecret;\r\n    }\r\n\r\n    /// @notice Lock the user account by putting shares on each guardians\r\n    /// @param _shares parts of the secret crypted with guardian key\r\n    /// @param threashold minimum number of shares needed to unlock the secret\r\n    /// @dev _shares should be in the same order as guardians\r\n    function lock(string[] calldata _shares, uint threashold) onlyUsers external{\r\n        require(_shares.length >= threashold, \"threashold should be less of equals than shares number\");\r\n        require(users[msg.sender].guardianCount == _shares.length, \"You should have the same number of guardians and shares\");\r\n        require(users[msg.sender].guardianCount >= threashold, \"You don't have enough guardians\");\r\n\r\n\r\n        uint guardianCount = users[msg.sender].guardianCount;\r\n        for(uint i = 0 ; i <guardianCount ; i++){\r\n            address guardianAddress = users[msg.sender].guardians[i];\r\n            require(guardians[guardianAddress].guardianStatus != GuardianStatus.Pending, \"A guardian is not confirmed\");\r\n            guardians[guardianAddress].guardianStatus = GuardianStatus.Locked;\r\n            guardians[guardianAddress].secret = _shares[i];\r\n        }\r\n    users[msg.sender].accountStatus = UserAccountStatus.Locked;\r\n    }\r\n\r\n}",
  "sourcePath": "D:\\pro\\alyra\\deana2\\truffle\\contracts\\SocialRecovery.sol",
  "compiler": {
    "name": "solc",
    "version": "0.8.14+commit.80d49f37.Emscripten.clang"
  },
  "schemaVersion": "3.4.10",
  "updatedAt": "2022-12-08T16:57:52.011Z",
  "networkType": "ethereum",
  "devdoc": {
    "author": "Julien Lampin",
    "details": "Inherits the OpenZepplin Ownable implentation",
    "kind": "dev",
    "methods": {
      "addGuardian(address,string)": {
        "details": "Will be applyed to current user, if no user exist, user will be created",
        "params": {
          "_guardianAddress": "address of the guardian to add",
          "_name": "name of the guardian, only used for user friendly display"
        }
      },
      "confirmGuardian()": {
        "details": "can only be used by the guardian itself"
      },
      "getProtectedUser()": {
        "returns": {
          "_0": "User that sender address is protecting"
        }
      },
      "getUnlockedSecrets()": {
        "details": "can only be used by the guardian itself",
        "returns": {
          "_0": "The guardian related current secret (this secret is encrypt using guardian key)"
        }
      },
      "lock(string[],uint256)": {
        "details": "_shares should be in the same order as guardians",
        "params": {
          "_shares": "parts of the secret crypted with guardian key",
          "threashold": "minimum number of shares needed to unlock the secret"
        }
      },
      "owner()": {
        "details": "Returns the address of the current owner."
      },
      "renounceOwnership()": {
        "details": "Leaves the contract without owner. It will not be possible to call `onlyOwner` functions anymore. Can only be called by the current owner. NOTE: Renouncing ownership will leave the contract without an owner, thereby removing any functionality that is only available to the owner."
      },
      "revokeGuardian(address)": {
        "details": "Allowed only if number of remaining guardian is higher or equal than threashold",
        "params": {
          "_guardianAddress": "address of the guardian to revoke"
        }
      },
      "transferOwnership(address)": {
        "details": "Transfers ownership of the contract to a new account (`newOwner`). Can only be called by the current owner."
      },
      "unlock(address,string)": {
        "details": "if account was in recovery we initialise the recovery mode by setting the _recoveryUserAddress",
        "params": {
          "_recoveryUserAddress": "recovery address used to encrypt the unlocked secret",
          "unlockedSecret": "decrypt secret from guardian, re-encrypted with user recovery address"
        }
      }
    },
    "title": "SocialRecovery contract used for DeaNa APP",
    "version": 1
  },
  "userdoc": {
    "events": {
      "GuardianStatusChange(address,address,uint8,uint8,uint256)": {
        "notice": "GuardianStatus indicate in which state the guardian currently is"
      }
    },
    "kind": "user",
    "methods": {
      "addGuardian(address,string)": {
        "notice": "Add a new guardian for the user"
      },
      "confirmGuardian()": {
        "notice": "Confirm a guardian protection"
      },
      "getProtectedUser()": {
        "notice": "Return the user related to a specific guardian (Assuming here (for the v1) that address can only be used to protect one account)"
      },
      "getRecoverUser()": {
        "notice": "Return the user related to a specific recovered address"
      },
      "getUnlockedSecrets()": {
        "notice": "Method to retrieve guardian secret"
      },
      "getUser()": {
        "notice": "Return the user related to caller address"
      },
      "lock(string[],uint256)": {
        "notice": "Lock the user account by putting shares on each guardians"
      },
      "revokeGuardian(address)": {
        "notice": "Revoke a guardian, removing it for user guardian list"
      },
      "unlock(address,string)": {
        "notice": "Unlock a secret by adding the unlockedSecret to the guardian"
      }
    },
    "notice": "This contract allow you to protect your private key (or any information) with guardians. Theses guardian will be able to unlock the secret if enough of them enable it",
    "version": 1
  }
}