{
  "contractName": "Voting",
  "abi": [
    {
      "anonymous": false,
      "inputs": [
        {
          "indexed": true,
          "internalType": "address",
          "name": "previousOwner",
          "type": "address"
        },
        {
          "indexed": true,
          "internalType": "address",
          "name": "newOwner",
          "type": "address"
        }
      ],
      "name": "OwnershipTransferred",
      "type": "event"
    },
    {
      "anonymous": false,
      "inputs": [
        {
          "indexed": false,
          "internalType": "address",
          "name": "userAddress",
          "type": "address"
        },
        {
          "indexed": false,
          "internalType": "string",
          "name": "description",
          "type": "string"
        },
        {
          "indexed": false,
          "internalType": "uint256",
          "name": "proposalId",
          "type": "uint256"
        },
        {
          "indexed": false,
          "internalType": "uint256",
          "name": "timestamp",
          "type": "uint256"
        }
      ],
      "name": "ProposalRegistered",
      "type": "event"
    },
    {
      "anonymous": false,
      "inputs": [
        {
          "indexed": false,
          "internalType": "address",
          "name": "voter",
          "type": "address"
        },
        {
          "indexed": false,
          "internalType": "uint256",
          "name": "proposalId",
          "type": "uint256"
        },
        {
          "indexed": false,
          "internalType": "uint256",
          "name": "timestamp",
          "type": "uint256"
        }
      ],
      "name": "Voted",
      "type": "event"
    },
    {
      "anonymous": false,
      "inputs": [
        {
          "indexed": false,
          "internalType": "address",
          "name": "voterAddress",
          "type": "address"
        },
        {
          "indexed": false,
          "internalType": "uint256",
          "name": "timestamp",
          "type": "uint256"
        }
      ],
      "name": "VoterRegistered",
      "type": "event"
    },
    {
      "anonymous": false,
      "inputs": [
        {
          "indexed": false,
          "internalType": "enum Voting.WorkflowStatus",
          "name": "previousStatus",
          "type": "uint8"
        },
        {
          "indexed": false,
          "internalType": "enum Voting.WorkflowStatus",
          "name": "newStatus",
          "type": "uint8"
        },
        {
          "indexed": false,
          "internalType": "uint256",
          "name": "timestamp",
          "type": "uint256"
        }
      ],
      "name": "WorkflowStatusChange",
      "type": "event"
    },
    {
      "inputs": [],
      "name": "owner",
      "outputs": [
        {
          "internalType": "address",
          "name": "",
          "type": "address"
        }
      ],
      "stateMutability": "view",
      "type": "function",
      "constant": true
    },
    {
      "inputs": [],
      "name": "renounceOwnership",
      "outputs": [],
      "stateMutability": "nonpayable",
      "type": "function"
    },
    {
      "inputs": [
        {
          "internalType": "address",
          "name": "newOwner",
          "type": "address"
        }
      ],
      "name": "transferOwnership",
      "outputs": [],
      "stateMutability": "nonpayable",
      "type": "function"
    },
    {
      "inputs": [],
      "name": "winningProposalID",
      "outputs": [
        {
          "internalType": "uint256",
          "name": "",
          "type": "uint256"
        }
      ],
      "stateMutability": "view",
      "type": "function",
      "constant": true
    },
    {
      "inputs": [],
      "name": "workflowStatus",
      "outputs": [
        {
          "internalType": "enum Voting.WorkflowStatus",
          "name": "",
          "type": "uint8"
        }
      ],
      "stateMutability": "view",
      "type": "function",
      "constant": true
    },
    {
      "inputs": [
        {
          "internalType": "address",
          "name": "_addr",
          "type": "address"
        }
      ],
      "name": "getVoter",
      "outputs": [
        {
          "components": [
            {
              "internalType": "bool",
              "name": "isRegistered",
              "type": "bool"
            },
            {
              "internalType": "bool",
              "name": "hasVoted",
              "type": "bool"
            },
            {
              "internalType": "uint256",
              "name": "votedProposalId",
              "type": "uint256"
            },
            {
              "internalType": "uint256",
              "name": "proposalCount",
              "type": "uint256"
            }
          ],
          "internalType": "struct Voting.Voter",
          "name": "",
          "type": "tuple"
        }
      ],
      "stateMutability": "view",
      "type": "function",
      "constant": true
    },
    {
      "inputs": [
        {
          "internalType": "uint256",
          "name": "_id",
          "type": "uint256"
        }
      ],
      "name": "getOneProposal",
      "outputs": [
        {
          "components": [
            {
              "internalType": "string",
              "name": "description",
              "type": "string"
            },
            {
              "internalType": "uint256",
              "name": "voteCount",
              "type": "uint256"
            }
          ],
          "internalType": "struct Voting.Proposal",
          "name": "",
          "type": "tuple"
        }
      ],
      "stateMutability": "view",
      "type": "function",
      "constant": true
    },
    {
      "inputs": [
        {
          "internalType": "address",
          "name": "_addr",
          "type": "address"
        }
      ],
      "name": "addVoter",
      "outputs": [],
      "stateMutability": "nonpayable",
      "type": "function"
    },
    {
      "inputs": [
        {
          "internalType": "string",
          "name": "_desc",
          "type": "string"
        }
      ],
      "name": "addProposal",
      "outputs": [],
      "stateMutability": "nonpayable",
      "type": "function"
    },
    {
      "inputs": [
        {
          "internalType": "uint256",
          "name": "_id",
          "type": "uint256"
        }
      ],
      "name": "setVote",
      "outputs": [],
      "stateMutability": "nonpayable",
      "type": "function"
    },
    {
      "inputs": [],
      "name": "startProposalsRegistering",
      "outputs": [],
      "stateMutability": "nonpayable",
      "type": "function"
    },
    {
      "inputs": [],
      "name": "endProposalsRegistering",
      "outputs": [],
      "stateMutability": "nonpayable",
      "type": "function"
    },
    {
      "inputs": [],
      "name": "startVotingSession",
      "outputs": [],
      "stateMutability": "nonpayable",
      "type": "function"
    },
    {
      "inputs": [],
      "name": "endVotingSession",
      "outputs": [],
      "stateMutability": "nonpayable",
      "type": "function"
    },
    {
      "inputs": [],
      "name": "tallyVotes",
      "outputs": [],
      "stateMutability": "nonpayable",
      "type": "function"
    }
  ],
  "bytecode": "0x608060405234801561001057600080fd5b5061002d61002261003260201b60201c565b61003a60201b60201c565b6100fe565b600033905090565b60008060009054906101000a900473ffffffffffffffffffffffffffffffffffffffff169050816000806101000a81548173ffffffffffffffffffffffffffffffffffffffff021916908373ffffffffffffffffffffffffffffffffffffffff1602179055508173ffffffffffffffffffffffffffffffffffffffff168173ffffffffffffffffffffffffffffffffffffffff167f8be0079c531659141344cd1fd0a4f28419497f9722a3daafe3b4186f6b6457e060405160405180910390a35050565b61243b806200010e6000396000f3fe608060405234801561001057600080fd5b50600436106100f55760003560e01c8063a7bfab1611610097578063d4f50f9811610066578063d4f50f98146101ee578063ee74c6781461021e578063f2fde38b14610228578063f4ab9adf14610244576100f5565b8063a7bfab16146101b2578063bdc01431146101bc578063c7038a4e146101da578063c88af42f146101e4576100f5565b8063715018a6116100d3578063715018a61461013c5780638da5cb5b14610146578063a1edffa214610164578063a2788cce14610182576100f5565b8063230796ae146100fa5780632fdae3c514610116578063378a217814610132575b600080fd5b610114600480360381019061010f919061156c565b610260565b005b610130600480360381019061012b91906115fe565b61055d565b005b61013a6108ce565b005b610144610a3d565b005b61014e610a51565b60405161015b919061168c565b60405180910390f35b61016c610a7a565b604051610179919061171e565b60405180910390f35b61019c6004803603810190610197919061156c565b610a8d565b6040516101a9919061181e565b60405180910390f35b6101ba610bf4565b005b6101c4610cdc565b6040516101d1919061184f565b60405180910390f35b6101e2610ce2565b005b6101ec610dca565b005b61020860048036038101906102039190611896565b610eb1565b6040516102159190611933565b60405180910390f35b610226610fe3565b005b610242600480360381019061023d9190611896565b6110cb565b005b61025e60048036038101906102599190611896565b61114e565b005b600460003373ffffffffffffffffffffffffffffffffffffffff1673ffffffffffffffffffffffffffffffffffffffff16815260200190815260200160002060000160009054906101000a900460ff166102ef576040517f08c379a00000000000000000000000000000000000000000000000000000000081526004016102e6906119ab565b60405180910390fd5b60036005811115610303576103026116a7565b5b600260009054906101000a900460ff166005811115610325576103246116a7565b5b14610365576040517f08c379a000000000000000000000000000000000000000000000000000000000815260040161035c90611a3d565b60405180910390fd5b60011515600460003373ffffffffffffffffffffffffffffffffffffffff1673ffffffffffffffffffffffffffffffffffffffff16815260200190815260200160002060000160019054906101000a900460ff161515036103fb576040517f08c379a00000000000000000000000000000000000000000000000000000000081526004016103f290611aa9565b60405180910390fd5b6003805490508110610442576040517f08c379a000000000000000000000000000000000000000000000000000000000815260040161043990611b15565b60405180910390fd5b80600460003373ffffffffffffffffffffffffffffffffffffffff1673ffffffffffffffffffffffffffffffffffffffff168152602001908152602001600020600101819055506001600460003373ffffffffffffffffffffffffffffffffffffffff1673ffffffffffffffffffffffffffffffffffffffff16815260200190815260200160002060000160016101000a81548160ff021916908315150217905550600381815481106104f8576104f7611b35565b5b9060005260206000209060020201600101600081548092919061051a90611b93565b91905055507fea66f58e474bc09f580000e81f31b334d171db387d0c6098ba47bd897741679b33824260405161055293929190611bdb565b60405180910390a150565b600460003373ffffffffffffffffffffffffffffffffffffffff1673ffffffffffffffffffffffffffffffffffffffff16815260200190815260200160002060000160009054906101000a900460ff166105ec576040517f08c379a00000000000000000000000000000000000000000000000000000000081526004016105e3906119ab565b60405180910390fd5b60016005811115610600576105ff6116a7565b5b600260009054906101000a900460ff166005811115610622576106216116a7565b5b14610662576040517f08c379a000000000000000000000000000000000000000000000000000000000815260040161065990611c5e565b60405180910390fd5b60405160200161067190611ca4565b60405160208183030381529060405280519060200120828260405160200161069a929190611d00565b60405160208183030381529060405280519060200120036106f0576040517f08c379a00000000000000000000000000000000000000000000000000000000081526004016106e790611d96565b60405180910390fd5b6003600460003373ffffffffffffffffffffffffffffffffffffffff1673ffffffffffffffffffffffffffffffffffffffff1681526020019081526020016000206002015410610775576040517f08c379a000000000000000000000000000000000000000000000000000000000815260040161076c90611e28565b60405180910390fd5b61077d611443565b82828080601f016020809104026020016040519081016040528093929190818152602001838380828437600081840152601f19601f8201169050808301925050505050505081600001819052506003819080600181540180825580915050600190039060005260206000209060020201600090919091909150600082015181600001908051906020019061081292919061145d565b50602082015181600101555050600460003373ffffffffffffffffffffffffffffffffffffffff1673ffffffffffffffffffffffffffffffffffffffff168152602001908152602001600020600201600081548092919061087290611b93565b91905055507f7ad26f8753e2e670b0fec9da36cfa36cc24c169b4a9388d030abb8ddbb68c01933826000015160016003805490506108b09190611e48565b426040516108c19493929190611eb5565b60405180910390a1505050565b6108d66112f9565b600460058111156108ea576108e96116a7565b5b600260009054906101000a900460ff16600581111561090c5761090b6116a7565b5b1461094c576040517f08c379a000000000000000000000000000000000000000000000000000000000815260040161094390611f73565b60405180910390fd5b600080600090505b6003805490508110156109ca576003828154811061097557610974611b35565b5b9060005260206000209060020201600101546003828154811061099b5761099a611b35565b5b90600052602060002090600202016001015411156109b7578091505b80806109c290611b93565b915050610954565b50806001819055506005600260006101000a81548160ff021916908360058111156109f8576109f76116a7565b5b02179055507f1d520e327caba26c444617e7d36e7900df66f5e7cf7507e5ec5ffcda9d07e3356004600542604051610a3293929190611f93565b60405180910390a150565b610a456112f9565b610a4f6000611377565b565b60008060009054906101000a900473ffffffffffffffffffffffffffffffffffffffff16905090565b600260009054906101000a900460ff1681565b610a95611443565b600460003373ffffffffffffffffffffffffffffffffffffffff1673ffffffffffffffffffffffffffffffffffffffff16815260200190815260200160002060000160009054906101000a900460ff16610b24576040517f08c379a0000000000000000000000000000000000000000000000000000000008152600401610b1b906119ab565b60405180910390fd5b60038281548110610b3857610b37611b35565b5b9060005260206000209060020201604051806040016040529081600082018054610b6190611ff9565b80601f0160208091040260200160405190810160405280929190818152602001828054610b8d90611ff9565b8015610bda5780601f10610baf57610100808354040283529160200191610bda565b820191906000526020600020905b815481529060010190602001808311610bbd57829003601f168201915b505050505081526020016001820154815250509050919050565b610bfc6112f9565b60036005811115610c1057610c0f6116a7565b5b600260009054906101000a900460ff166005811115610c3257610c316116a7565b5b14610c72576040517f08c379a0000000000000000000000000000000000000000000000000000000008152600401610c6990611a3d565b60405180910390fd5b6004600260006101000a81548160ff02191690836005811115610c9857610c976116a7565b5b02179055507f1d520e327caba26c444617e7d36e7900df66f5e7cf7507e5ec5ffcda9d07e3356003600442604051610cd293929190611f93565b60405180910390a1565b60015481565b610cea6112f9565b60006005811115610cfe57610cfd6116a7565b5b600260009054906101000a900460ff166005811115610d2057610d1f6116a7565b5b14610d60576040517f08c379a0000000000000000000000000000000000000000000000000000000008152600401610d579061209c565b60405180910390fd5b6001600260006101000a81548160ff02191690836005811115610d8657610d856116a7565b5b02179055507f1d520e327caba26c444617e7d36e7900df66f5e7cf7507e5ec5ffcda9d07e3356000600142604051610dc093929190611f93565b60405180910390a1565b610dd26112f9565b60016005811115610de657610de56116a7565b5b600260009054906101000a900460ff166005811115610e0857610e076116a7565b5b14610e48576040517f08c379a0000000000000000000000000000000000000000000000000000000008152600401610e3f9061212e565b60405180910390fd5b60028060006101000a81548160ff02191690836005811115610e6d57610e6c6116a7565b5b02179055507f1d520e327caba26c444617e7d36e7900df66f5e7cf7507e5ec5ffcda9d07e3356001600242604051610ea793929190611f93565b60405180910390a1565b610eb96114e3565b600460003373ffffffffffffffffffffffffffffffffffffffff1673ffffffffffffffffffffffffffffffffffffffff16815260200190815260200160002060000160009054906101000a900460ff16610f48576040517f08c379a0000000000000000000000000000000000000000000000000000000008152600401610f3f906119ab565b60405180910390fd5b600460008373ffffffffffffffffffffffffffffffffffffffff1673ffffffffffffffffffffffffffffffffffffffff1681526020019081526020016000206040518060800160405290816000820160009054906101000a900460ff161515151581526020016000820160019054906101000a900460ff16151515158152602001600182015481526020016002820154815250509050919050565b610feb6112f9565b60026005811115610fff57610ffe6116a7565b5b600260009054906101000a900460ff166005811115611021576110206116a7565b5b14611061576040517f08c379a0000000000000000000000000000000000000000000000000000000008152600401611058906121c0565b60405180910390fd5b6003600260006101000a81548160ff02191690836005811115611087576110866116a7565b5b02179055507f1d520e327caba26c444617e7d36e7900df66f5e7cf7507e5ec5ffcda9d07e33560026003426040516110c193929190611f93565b60405180910390a1565b6110d36112f9565b600073ffffffffffffffffffffffffffffffffffffffff168173ffffffffffffffffffffffffffffffffffffffff1603611142576040517f08c379a000000000000000000000000000000000000000000000000000000000815260040161113990612252565b60405180910390fd5b61114b81611377565b50565b6111566112f9565b6000600581111561116a576111696116a7565b5b600260009054906101000a900460ff16600581111561118c5761118b6116a7565b5b146111cc576040517f08c379a00000000000000000000000000000000000000000000000000000000081526004016111c3906122e4565b60405180910390fd5b60011515600460008373ffffffffffffffffffffffffffffffffffffffff1673ffffffffffffffffffffffffffffffffffffffff16815260200190815260200160002060000160009054906101000a900460ff16151503611262576040517f08c379a000000000000000000000000000000000000000000000000000000000815260040161125990612350565b60405180910390fd5b6001600460008373ffffffffffffffffffffffffffffffffffffffff1673ffffffffffffffffffffffffffffffffffffffff16815260200190815260200160002060000160006101000a81548160ff0219169083151502179055507ff16ce2c2236e2c6e3df646f80d657bceef4cd7f3a240c47e82adfa17a5f4724181426040516112ee929190612370565b60405180910390a150565b61130161143b565b73ffffffffffffffffffffffffffffffffffffffff1661131f610a51565b73ffffffffffffffffffffffffffffffffffffffff1614611375576040517f08c379a000000000000000000000000000000000000000000000000000000000815260040161136c906123e5565b60405180910390fd5b565b60008060009054906101000a900473ffffffffffffffffffffffffffffffffffffffff169050816000806101000a81548173ffffffffffffffffffffffffffffffffffffffff021916908373ffffffffffffffffffffffffffffffffffffffff1602179055508173ffffffffffffffffffffffffffffffffffffffff168173ffffffffffffffffffffffffffffffffffffffff167f8be0079c531659141344cd1fd0a4f28419497f9722a3daafe3b4186f6b6457e060405160405180910390a35050565b600033905090565b604051806040016040528060608152602001600081525090565b82805461146990611ff9565b90600052602060002090601f01602090048101928261148b57600085556114d2565b82601f106114a457805160ff19168380011785556114d2565b828001600101855582156114d2579182015b828111156114d15782518255916020019190600101906114b6565b5b5090506114df919061150f565b5090565b604051806080016040528060001515815260200160001515815260200160008152602001600081525090565b5b80821115611528576000816000905550600101611510565b5090565b600080fd5b600080fd5b6000819050919050565b61154981611536565b811461155457600080fd5b50565b60008135905061156681611540565b92915050565b6000602082840312156115825761158161152c565b5b600061159084828501611557565b91505092915050565b600080fd5b600080fd5b600080fd5b60008083601f8401126115be576115bd611599565b5b8235905067ffffffffffffffff8111156115db576115da61159e565b5b6020830191508360018202830111156115f7576115f66115a3565b5b9250929050565b600080602083850312156116155761161461152c565b5b600083013567ffffffffffffffff81111561163357611632611531565b5b61163f858286016115a8565b92509250509250929050565b600073ffffffffffffffffffffffffffffffffffffffff82169050919050565b60006116768261164b565b9050919050565b6116868161166b565b82525050565b60006020820190506116a1600083018461167d565b92915050565b7f4e487b7100000000000000000000000000000000000000000000000000000000600052602160045260246000fd5b600681106116e7576116e66116a7565b5b50565b60008190506116f8826116d6565b919050565b6000611708826116ea565b9050919050565b611718816116fd565b82525050565b6000602082019050611733600083018461170f565b92915050565b600081519050919050565b600082825260208201905092915050565b60005b83811015611773578082015181840152602081019050611758565b83811115611782576000848401525b50505050565b6000601f19601f8301169050919050565b60006117a482611739565b6117ae8185611744565b93506117be818560208601611755565b6117c781611788565b840191505092915050565b6117db81611536565b82525050565b600060408301600083015184820360008601526117fe8282611799565b915050602083015161181360208601826117d2565b508091505092915050565b6000602082019050818103600083015261183881846117e1565b905092915050565b61184981611536565b82525050565b60006020820190506118646000830184611840565b92915050565b6118738161166b565b811461187e57600080fd5b50565b6000813590506118908161186a565b92915050565b6000602082840312156118ac576118ab61152c565b5b60006118ba84828501611881565b91505092915050565b60008115159050919050565b6118d8816118c3565b82525050565b6080820160008201516118f460008501826118cf565b50602082015161190760208501826118cf565b50604082015161191a60408501826117d2565b50606082015161192d60608501826117d2565b50505050565b600060808201905061194860008301846118de565b92915050565b600082825260208201905092915050565b7f596f75277265206e6f74206120766f7465720000000000000000000000000000600082015250565b600061199560128361194e565b91506119a08261195f565b602082019050919050565b600060208201905081810360008301526119c481611988565b9050919050565b7f566f74696e672073657373696f6e20686176656e74207374617274656420796560008201527f7400000000000000000000000000000000000000000000000000000000000000602082015250565b6000611a2760218361194e565b9150611a32826119cb565b604082019050919050565b60006020820190508181036000830152611a5681611a1a565b9050919050565b7f596f75206861766520616c726561647920766f74656400000000000000000000600082015250565b6000611a9360168361194e565b9150611a9e82611a5d565b602082019050919050565b60006020820190508181036000830152611ac281611a86565b9050919050565b7f50726f706f73616c206e6f7420666f756e640000000000000000000000000000600082015250565b6000611aff60128361194e565b9150611b0a82611ac9565b602082019050919050565b60006020820190508181036000830152611b2e81611af2565b9050919050565b7f4e487b7100000000000000000000000000000000000000000000000000000000600052603260045260246000fd5b7f4e487b7100000000000000000000000000000000000000000000000000000000600052601160045260246000fd5b6000611b9e82611536565b91507fffffffffffffffffffffffffffffffffffffffffffffffffffffffffffffffff8203611bd057611bcf611b64565b5b600182019050919050565b6000606082019050611bf0600083018661167d565b611bfd6020830185611840565b611c0a6040830184611840565b949350505050565b7f50726f706f73616c7320617265206e6f7420616c6c6f77656420796574000000600082015250565b6000611c48601d8361194e565b9150611c5382611c12565b602082019050919050565b60006020820190508181036000830152611c7781611c3b565b9050919050565b50565b6000611c8e60008361194e565b9150611c9982611c7e565b600082019050919050565b60006020820190508181036000830152611cbd81611c81565b9050919050565b82818337600083830152505050565b6000611cdf838561194e565b9350611cec838584611cc4565b611cf583611788565b840190509392505050565b60006020820190508181036000830152611d1b818486611cd3565b90509392505050565b7f566f7573206e6520706f7576657a20706173206e65207269656e2070726f706f60008201527f7365720000000000000000000000000000000000000000000000000000000000602082015250565b6000611d8060238361194e565b9150611d8b82611d24565b604082019050919050565b60006020820190508181036000830152611daf81611d73565b9050919050565b7f566f7573206e6520706f7576657a2070726f706f73657220717565203320707260008201527f6f706f736974696f6e73206d6178696d756d0000000000000000000000000000602082015250565b6000611e1260328361194e565b9150611e1d82611db6565b604082019050919050565b60006020820190508181036000830152611e4181611e05565b9050919050565b6000611e5382611536565b9150611e5e83611536565b925082821015611e7157611e70611b64565b5b828203905092915050565b6000611e8782611739565b611e91818561194e565b9350611ea1818560208601611755565b611eaa81611788565b840191505092915050565b6000608082019050611eca600083018761167d565b8181036020830152611edc8186611e7c565b9050611eeb6040830185611840565b611ef86060830184611840565b95945050505050565b7f43757272656e7420737461747573206973206e6f7420766f74696e672073657360008201527f73696f6e20656e64656400000000000000000000000000000000000000000000602082015250565b6000611f5d602a8361194e565b9150611f6882611f01565b604082019050919050565b60006020820190508181036000830152611f8c81611f50565b9050919050565b6000606082019050611fa8600083018661170f565b611fb5602083018561170f565b611fc26040830184611840565b949350505050565b7f4e487b7100000000000000000000000000000000000000000000000000000000600052602260045260246000fd5b6000600282049050600182168061201157607f821691505b60208210810361202457612023611fca565b5b50919050565b7f5265676973746572696e672070726f706f73616c732063616e7420626520737460008201527f6172746564206e6f770000000000000000000000000000000000000000000000602082015250565b600061208660298361194e565b91506120918261202a565b604082019050919050565b600060208201905081810360008301526120b581612079565b9050919050565b7f5265676973746572696e672070726f706f73616c7320686176656e742073746160008201527f7274656420796574000000000000000000000000000000000000000000000000602082015250565b600061211860288361194e565b9150612123826120bc565b604082019050919050565b600060208201905081810360008301526121478161210b565b9050919050565b7f5265676973746572696e672070726f706f73616c73207068617365206973206e60008201527f6f742066696e6973686564000000000000000000000000000000000000000000602082015250565b60006121aa602b8361194e565b91506121b58261214e565b604082019050919050565b600060208201905081810360008301526121d98161219d565b9050919050565b7f4f776e61626c653a206e6577206f776e657220697320746865207a65726f206160008201527f6464726573730000000000000000000000000000000000000000000000000000602082015250565b600061223c60268361194e565b9150612247826121e0565b604082019050919050565b6000602082019050818103600083015261226b8161222f565b9050919050565b7f566f7465727320726567697374726174696f6e206973206e6f74206f70656e2060008201527f7965740000000000000000000000000000000000000000000000000000000000602082015250565b60006122ce60238361194e565b91506122d982612272565b604082019050919050565b600060208201905081810360008301526122fd816122c1565b9050919050565b7f416c726561647920726567697374657265640000000000000000000000000000600082015250565b600061233a60128361194e565b915061234582612304565b602082019050919050565b600060208201905081810360008301526123698161232d565b9050919050565b6000604082019050612385600083018561167d565b6123926020830184611840565b9392505050565b7f4f776e61626c653a2063616c6c6572206973206e6f7420746865206f776e6572600082015250565b60006123cf60208361194e565b91506123da82612399565b602082019050919050565b600060208201905081810360008301526123fe816123c2565b905091905056fea2646970667358221220ab193ca1d0cfc0bad5a32803f099c9ecbaa66c396e822390035ded10ad8b3b7064736f6c634300080e0033",
  "immutableReferences": {},
  "source": "// SPDX-License-Identifier: MIT\r\n\r\npragma solidity 0.8.14;\r\nimport \"../node_modules/@openzeppelin/contracts/access/Ownable.sol\";\r\n\r\n\r\ncontract Voting is Ownable {\r\n\r\n    uint public winningProposalID;\r\n\r\n    struct Voter {\r\n        bool isRegistered;\r\n        bool hasVoted;\r\n        uint votedProposalId;\r\n        uint proposalCount;\r\n    }\r\n\r\n    struct Proposal {\r\n        string description;\r\n        uint voteCount;\r\n    }\r\n\r\n    enum  WorkflowStatus {\r\n        RegisteringVoters,\r\n        ProposalsRegistrationStarted,\r\n        ProposalsRegistrationEnded,\r\n        VotingSessionStarted,\r\n        VotingSessionEnded,\r\n        VotesTallied\r\n    }\r\n\r\n    WorkflowStatus public workflowStatus;\r\n    Proposal[] proposalsArray;\r\n    mapping (address => Voter) voters;\r\n\r\n\r\n    event VoterRegistered(address voterAddress, uint256 timestamp);\r\n    event WorkflowStatusChange(WorkflowStatus previousStatus, WorkflowStatus newStatus, uint256 timestamp);\r\n    event ProposalRegistered(address userAddress, string description, uint proposalId, uint256 timestamp);\r\n    event Voted (address voter, uint proposalId, uint256 timestamp);\r\n\r\n    modifier onlyVoters() {\r\n        require(voters[msg.sender].isRegistered, \"You're not a voter\");\r\n        _;\r\n    }\r\n\r\n    // on peut faire un modifier pour les tats\r\n\r\n    // ::::::::::::: GETTERS ::::::::::::: //\r\n\r\n    function getVoter(address _addr) external onlyVoters view returns (Voter memory) {\r\n        return voters[_addr];\r\n    }\r\n\r\n    function getOneProposal(uint _id) external onlyVoters view returns (Proposal memory) {\r\n        return proposalsArray[_id];\r\n    }\r\n\r\n\r\n    // ::::::::::::: REGISTRATION ::::::::::::: //\r\n\r\n    function addVoter(address _addr) external onlyOwner {\r\n        require(workflowStatus == WorkflowStatus.RegisteringVoters, 'Voters registration is not open yet');\r\n        require(voters[_addr].isRegistered != true, 'Already registered');\r\n\r\n        voters[_addr].isRegistered = true;\r\n        emit VoterRegistered(_addr,block.timestamp);\r\n    }\r\n\r\n\r\n    // ::::::::::::: PROPOSAL ::::::::::::: //\r\n\r\n    function addProposal(string calldata _desc) external onlyVoters {\r\n        require(workflowStatus == WorkflowStatus.ProposalsRegistrationStarted, 'Proposals are not allowed yet');\r\n        require(keccak256(abi.encode(_desc)) != keccak256(abi.encode(\"\")), 'Vous ne pouvez pas ne rien proposer'); // facultatif\r\n        require(voters[msg.sender].proposalCount<3, 'Vous ne pouvez proposer que 3 propositions maximum');\r\n        // voir que desc est different des autres\r\n\r\n        Proposal memory proposal;\r\n        proposal.description = _desc;\r\n        proposalsArray.push(proposal);\r\n        voters[msg.sender].proposalCount++;\r\n        emit ProposalRegistered(msg.sender, proposal.description, proposalsArray.length-1, block.timestamp);\r\n    }\r\n\r\n    // ::::::::::::: VOTE ::::::::::::: //\r\n\r\n    function setVote( uint _id) external onlyVoters {\r\n        require(workflowStatus == WorkflowStatus.VotingSessionStarted, 'Voting session havent started yet');\r\n        require(voters[msg.sender].hasVoted != true, 'You have already voted');\r\n        require(_id < proposalsArray.length, 'Proposal not found'); // pas oblig, et pas besoin du >0 car uint\r\n\r\n        voters[msg.sender].votedProposalId = _id;\r\n        voters[msg.sender].hasVoted = true;\r\n        proposalsArray[_id].voteCount++;\r\n\r\n        emit Voted(msg.sender, _id,block.timestamp);\r\n    }\r\n\r\n    // ::::::::::::: STATE ::::::::::::: //\r\n\r\n\r\n    function startProposalsRegistering() external onlyOwner {\r\n        require(workflowStatus == WorkflowStatus.RegisteringVoters, 'Registering proposals cant be started now');\r\n        workflowStatus = WorkflowStatus.ProposalsRegistrationStarted;\r\n\r\n        emit WorkflowStatusChange(WorkflowStatus.RegisteringVoters, WorkflowStatus.ProposalsRegistrationStarted,block.timestamp);\r\n    }\r\n\r\n    function endProposalsRegistering() external onlyOwner {\r\n        require(workflowStatus == WorkflowStatus.ProposalsRegistrationStarted, 'Registering proposals havent started yet');\r\n        workflowStatus = WorkflowStatus.ProposalsRegistrationEnded;\r\n        emit WorkflowStatusChange(WorkflowStatus.ProposalsRegistrationStarted, WorkflowStatus.ProposalsRegistrationEnded,block.timestamp);\r\n    }\r\n\r\n    function startVotingSession() external onlyOwner {\r\n        require(workflowStatus == WorkflowStatus.ProposalsRegistrationEnded, 'Registering proposals phase is not finished');\r\n        workflowStatus = WorkflowStatus.VotingSessionStarted;\r\n        emit WorkflowStatusChange(WorkflowStatus.ProposalsRegistrationEnded, WorkflowStatus.VotingSessionStarted,block.timestamp);\r\n    }\r\n\r\n    function endVotingSession() external onlyOwner {\r\n        require(workflowStatus == WorkflowStatus.VotingSessionStarted, 'Voting session havent started yet');\r\n        workflowStatus = WorkflowStatus.VotingSessionEnded;\r\n        emit WorkflowStatusChange(WorkflowStatus.VotingSessionStarted, WorkflowStatus.VotingSessionEnded,block.timestamp);\r\n    }\r\n\r\n\r\n    function tallyVotes() external onlyOwner {\r\n        require(workflowStatus == WorkflowStatus.VotingSessionEnded, \"Current status is not voting session ended\");\r\n        uint _winningProposalId;\r\n        for (uint256 p = 0; p < proposalsArray.length; p++) {\r\n            if (proposalsArray[p].voteCount > proposalsArray[_winningProposalId].voteCount) {\r\n                _winningProposalId = p;\r\n            }\r\n        }\r\n        winningProposalID = _winningProposalId;\r\n\r\n        workflowStatus = WorkflowStatus.VotesTallied;\r\n        emit WorkflowStatusChange(WorkflowStatus.VotingSessionEnded, WorkflowStatus.VotesTallied,block.timestamp);\r\n    }\r\n}",
  "sourcePath": "D:\\pro\\alyra\\voting-react\\truffle\\contracts\\Voting.sol",
  "compiler": {
    "name": "solc",
    "version": "0.8.14+commit.80d49f37.Emscripten.clang"
  },
  "schemaVersion": "3.4.10",
  "updatedAt": "2022-11-22T13:50:38.520Z",
  "networkType": "ethereum",
  "devdoc": {
    "kind": "dev",
    "methods": {
      "owner()": {
        "details": "Returns the address of the current owner."
      },
      "renounceOwnership()": {
        "details": "Leaves the contract without owner. It will not be possible to call `onlyOwner` functions anymore. Can only be called by the current owner. NOTE: Renouncing ownership will leave the contract without an owner, thereby removing any functionality that is only available to the owner."
      },
      "transferOwnership(address)": {
        "details": "Transfers ownership of the contract to a new account (`newOwner`). Can only be called by the current owner."
      }
    },
    "version": 1
  },
  "userdoc": {
    "kind": "user",
    "methods": {},
    "version": 1
  }
}